:100000000C9446000C9465000C9465000C946500FB
:100010000C9465000C9465000C9465000C946500CC
:100020000C9465000C9465000C9465000C946500BC
:100030000C9465000C94DE000C9465000C94650033
:100040000C9465000C9465000C9465000C9465009C
:100050000C9465000C9465000C9465000C9465008C
:100060000C9465000C9465000C9465000C9465007C
:100070000C9465000C9465000C9465000C9465006C
:100080000C9465000C9465000C94650011241FBE4F
:10009000CFEFD0E4DEBFCDBF12E0A0E0B1E0E2E1FF
:1000A000FBE000E00BBF02C007900D92A431B10746
:1000B000D9F722E0A4E1B2E001C01D92A532B20757
:1000C000E1F70E94C5030C9487050C940000CF93C0
:1000D000DF9300D01F92CDB7DEB789837B836A831D
:1000E00089818A3031F48A819B81BC018DE00E9434
:1000F000670080EC90E0FC018081882F90E08072A6
:100100009927892BB1F386EC90E02981FC012083AB
:1001100080E090E00F900F900F90DF91CF910895C5
:10012000CF93DF93CDB7DEB781E890E02BE0FC0101
:10013000208388E890E02DE730E0FC0131832083C4
:100140008FE690E022E0FC01208384E890E0FC014F
:100150001182108280910E0190910F01A0911001E7
:10016000B09111018093150290931602A09317028B
:10017000B09318028FE590E02FE530E0F90120817F
:100180002068FC0120830000DF91CF910895CF9378
:10019000DF93CDB7DEB781E890E0FC01108200006C
:1001A000DF91CF910895CF93DF93CDB7DEB781E094
:1001B000809314020000DF91CF9108951F920F9257
:1001C00000905F000F92112400905B000F922F931C
:1001D0003F934F935F936F937F938F939F93AF93CF
:1001E000BF93EF93FF93CF93DF93CDB7DEB78091AB
:1001F000150290911602A0911702B0911802019772
:10020000A109B1098093150290931602A0931702D9
:10021000B09318028091150290911602A0911702D6
:10022000B0911802892B8A2B8B2B91F40E94D3005A
:1002300080910E0190910F01A0911001B0911101D8
:100240008093150290931602A0931702B0931802A0
:100250000000DF91CF91FF91EF91BF91AF919F91FE
:100260008F917F916F915F914F913F912F910F905F
:1002700000925B000F9000925F000F901F90189506
:10028000CF93DF9300D000D0CDB7DEB769837A83F8
:100290008B839C8389819A81AB81BC8180930E0181
:1002A00090930F01A0931001B093110180910E0162
:1002B00090910F01A0911001B0911101809315024E
:1002C00090931602A0931702B093180200000F90AB
:1002D0000F900F900F90DF91CF9108950F931F9380
:1002E000CF93DF9300D000D0CDB7DEB769837A8398
:1002F0008B839C8380911A0290911B02A0911C0217
:10030000B0911D029C01AD0169817A818B819C8134
:100310000E94F303882309F477C020E030E0A901AC
:1003200069817A818B819C810E94F303882351F437
:1003300081E990E021E930E0F90120812870FC0199
:10034000208309C081E990E021E930E0F9012081B2
:100350002360FC01208328E539E344E75FE36981FA
:100360007A818B819C810E94F303882344F488E97D
:1003700090E02FEF3FEFFC013183208334C020E079
:1003800034E244EF56E469817A818B819C810E943A
:100390001505181634F488E990E0FC0111821082EA
:1003A00022C008E910E020E030E040E053E4698139
:1003B0007A818B819C810E941A05DC01CB019C0112
:1003C000AD0160E074E284EF9AE40E94F803DC017E
:1003D000CB01BC01CD010E946A04DC01CB01019775
:1003E000F8019183808384E990E0FC0111821082FE
:1003F00089819A81AB81BC8180931A0290931B0200
:10040000A0931C02B0931D0200000F900F900F905C
:100410000F90DF91CF911F910F910895CF93DF93AC
:10042000CDB7DEB780E990E020E4FC01208381E9CC
:1004300090E02BE0FC01208360E070E0CB010E94A3
:100440006E010000DF91CF910895CF93DF93CDB778
:10045000DEB780E990E0FC01108281E990E0FC01C8
:1004600010820000DF91CF910895CF93DF93CDB735
:10047000DEB7C450D1400FB6F894DEBF0FBECDBF7B
:1004800080E2E2E1F1E0DE01139601900D928A959F
:10049000E1F786E290E09A8389838CE4E2E3F1E07D
:1004A000DE01939601900D928A95E1F7CE01815974
:1004B0009F4F2CE4EEE7F1E0DC0101900D922A95CC
:1004C000E1F7CE0185549F4F2AE4EAECF1E0DC012C
:1004D00001900D922A95E1F780911E02882309F080
:1004E000A6C080911F02909120029E0121593F4F8A
:1004F000880F991F820F931FFC0120813181809109
:100500002102909122028217930760F580911F02C9
:1005100090912002880F991F9E012F5F3F4F820FFD
:10052000931F8296FC0180819181880F991F880F0B
:10053000991F9E012F5F3F4F820F931F0296FC0170
:1005400080819181A281B381BC01CD010E946E01A5
:100550008091210290912202019690932202809331
:10056000210265C0109222021092210289819A8193
:100570009C012150310980911F0290912002821725
:10058000930708F049C080911F02909120029E01BC
:1005900025543F4F880F991F820F931FFC018081C4
:1005A0009181892B21F081E080931E0240C08091CF
:1005B0001F029091200201969093200280931F02C7
:1005C00080911F0290912002880F991F9E012F5F3A
:1005D0003F4F820F931F8296FC0180819181880F8B
:1005E000991F880F991F9E012F5F3F4F820F931F06
:1005F0000296FC0180819181A281B381BC01CD0171
:100600000E946E01809121029091220201969093A6
:100610002202809321020BC0109219021092200234
:1006200010921F0260E070E0CB010E946E01809189
:100630001E02882391F160E070E0CB010E946E0100
:100640008091210290912202019690932202809340
:10065000210280911F02909120029E0125543F4F5C
:10066000880F991F820F931FFC0120813181809197
:100670002102909122022817390779F410921E0264
:1006800080911F0290912002019690932002809306
:100690001F0210922202109221020000CC5FDE4F56
:1006A0000FB6F894DEBF0FBECDBFDF91CF91089596
:1006B000CF93DF931F92CDB7DEB780E290E0FC01CD
:1006C0008081882F90E08170992721E0892B09F0A3
:1006D00020E02983809123029091240281309105AA
:1006E00069F08130910518F00297E1F030C081E0A7
:1006F00090E0909324028093230229C0898188236B
:1007000051F082E090E0909324028093230281E0F4
:10071000809319021CC081E090E0909324028093A2
:10072000230215C08981882359F4809119028823F6
:1007300039F481E090E0909324028093230206C074
:1007400082E090E090932402809323020000809145
:100750002302909124028130910569F08130910546
:1007600060F0029709F00CC080911902882339F0DB
:100770000E94350204C0000003C0000001C0000058
:1007800000000F90DF91CF910895CF93DF93CDB705
:10079000DEB781E290E0FC01108282E290E02FEF70
:1007A000FC01208384E290E02FEFFC01208385E2AE
:1007B00090E0FC01108262E370E080E090E00E9433
:1007C00040010E94900010922402109223020E9485
:1007D0000E020E9458030000809114028823E1F366
:1007E00010921402F6CF0E94A00408F481E008954C
:1007F0000E940C040C94DB040E94D40458F00E9464
:10080000CD0440F029F45F3F29F00C94C404511149
:100810000C940F050C94CA040E94EC0468F399230D
:10082000B1F3552391F3951B550BBB27AA276217EC
:100830007307840738F09F5F5F4F220F331F441FF9
:10084000AA1FA9F335D00E2E3AF0E0E832D091502D
:100850005040E695001CCAF72BD0FE2F29D0660F1A
:10086000771F881FBB1F261737074807AB07B0E85D
:1008700009F0BB0B802DBF01FF2793585F4F3AF063
:100880009E3F510578F00C94C4040C940F055F3F13
:10089000E4F3983ED4F3869577956795B795F795E9
:1008A0009F5FC9F7880F911D9695879597F90895D1
:1008B000E1E0660F771F881FBB1F6217730784076D
:1008C000BA0720F0621B730B840BBA0BEE1F88F77C
:1008D000E09508950E9471046894B1110C940F057D
:1008E00008950E94F40488F09F5798F0B92F992733
:1008F000B751B0F0E1F0660F771F881F991F1AF00B
:10090000BA95C9F714C0B13091F00E940E05B1E05C
:1009100008950C940E05672F782F8827B85F39F05B
:10092000B93FCCF3869577956795B395D9F73EF4A3
:1009300090958095709561957F4F8F4F9F4F08954B
:10094000990F0008550FAA0BE0E8FEEF16161706E0
:10095000E807F907C0F012161306E407F50798F048
:10096000621B730B840B950B39F40A2661F0232B61
:10097000242B252B21F408950A2609F4A140A695DD
:100980008FEF811D811D089597F99F6780E870E0C2
:1009900060E008959FEF80EC089500240A941616F5
:1009A000170618060906089500240A94121613065D
:1009B000140605060895092E0394000C11F48823EB
:1009C00052F0BB0F40F4BF2B11F460FF04C06F5F07
:1009D0007F4F8F4F9F4F089557FD9058440F551FDD
:1009E00059F05F3F71F04795880F97FB991F61F0B1
:1009F0009F3F79F087950895121613061406551F28
:100A0000F2CF4695F1DF08C0161617061806991F93
:100A1000F1CF86957105610508940895E894BB2788
:100A200066277727CB0197F908950E94A00408F460
:100A30008FEF08950E942D050C94DB040E94CD04D5
:100A400038F00E94D40420F0952311F00C94C404D3
:100A50000C94CA0411240C940F050E94EC0470F34A
:100A6000959FC1F3950F50E0551F629FF001729F53
:100A7000BB27F00DB11D639FAA27F00DB11DAA1F62
:100A8000649F6627B00DA11D661F829F2227B00DAF
:100A9000A11D621F739FB00DA11D621F839FA00D3A
:100AA000611D221F749F3327A00D611D231F849F8A
:100AB000600D211D822F762F6A2F11249F575040E1
:100AC0009AF0F1F088234AF0EE0FFF1FBB1F661F5C
:100AD000771F881F91505040A9F79E3F510580F025
:100AE0000C94C4040C940F055F3FE4F3983ED4F3D8
:100AF000869577956795B795F795E7959F5FC1F7C9
:100B0000FE2B880F911D9695879597F90895F89477
:020B1000FFCF15
:100B12000000000200000000670000000000010069
:100B22000000A4D082437BD49243A4D0A443719DFD
:100B3200AE430000C4430000DC43A4F0F64300D0FF
:100B42000244000001000200010000000200010056
:100B52000000000001000200040004000200010085
:100B62000000020001000000010002000300020078
:100B72000100000002000100000000000200040069
:100B82000400020002000100000001000000060053
:100B92000300060003000500030003000600060030
:100BA2000300040003000500030003000300030028
:100BB2000500060003000300030003000400060012
:100BC2000300030006000600030004000400030003
:100BD2000300030003000300030001000100010001
:100BE20001000100010001000600010001000100F6
:100BF20001000100010001000100010006000100E6
:100C020001000100010001000100010001000100DA
:100C120006000100010001000500010001000100C1
:040C220001000100CC
:00000001FF
