:100000000C9446000C9465000C9465000C946500FB
:100010000C9465000C9465000C9465000C946500CC
:100020000C9465000C9465000C9465000C946500BC
:100030000C9465000C9465000C9465000C946500AC
:100040000C9465000C9465000C9465000C9465009C
:100050000C9465000C9465000C9465000C9465008C
:100060000C9465000C9465000C9465000C9465007C
:100070000C9465000C9465000C9465000C9465006C
:100080000C9465000C9465000C94650011241FBE4F
:10009000CFEFD0E4DEBFCDBF11E0A0E0B1E0EAEAEF
:1000A000F8E000E00BBF02C007900D92A033B1074B
:1000B000D9F721E0A0E3B1E001C01D92AA33B20755
:1000C000E1F70E949C020C9453040C940000CF931F
:1000D000DF9300D01F92CDB7DEB789837B836A831D
:1000E00089818A3031F48A819B81BC018DE00E9434
:1000F000670080EC90E0FC018081882F90E08072A6
:100100009927892BB1F386EC90E02981FC012083AB
:1001100080E090E00F900F900F90DF91CF910895C5
:100120000F931F93CF93DF9300D000D0CDB7DEB7EE
:1001300069837A838B839C83809130019091310114
:10014000A0913201B09133019C01AD0169817A81A6
:100150008B819C810E94BF02882309F477C020E034
:1001600030E0A90169817A818B819C810E94BF0264
:10017000882351F481E990E021E930E0F901208100
:100180002870FC01208309C081E990E021E930E07A
:10019000F90120812360FC01208328E539E344E74D
:1001A0005FE369817A818B819C810E94BF028823F1
:1001B00044F488E990E02FEF3FEFFC013183208386
:1001C00034C020E034E244EF56E469817A818B81C7
:1001D0009C810E94E103181634F488E990E0FC0148
:1001E0001182108222C008E910E020E030E040E0F7
:1001F00053E469817A818B819C810E94E603DC0152
:10020000CB019C01AD0160E074E284EF9AE40E94AE
:10021000C402DC01CB01BC01CD010E943603DC012C
:10022000CB010197F8019183808384E990E0FC0180
:100230001182108289819A81AB81BC8180933001C7
:1002400090933101A0933201B093330100000F90DD
:100250000F900F900F90DF91CF911F910F91089504
:10026000CF93DF93CDB7DEB780E990E020E4FC01C7
:10027000208381E990E02BE0FC01208360E070E0C6
:10028000CB010E9490000000DF91CF910895CF93A1
:10029000DF93CDB7DEB780E990E0FC01108281E901
:1002A00090E0FC0110820000DF91CF910895CF9380
:1002B000DF931F92CDB7DEB780E290E0FC01808132
:1002C000882F90E08170992721E0892B09F020E0A8
:1002D000298380913801909139018230910531F163
:1002E0008330910528F4009749F0019771F051C0CF
:1002F0008330910561F10497D9F14BC084E090E01F
:10030000909339018093380144C08981882339F45E
:1003100084E090E090933901809338013AC081E005
:1003200090E0909339018093380133C0898188230C
:1003300039F483E090E0909339018093380129C02B
:1003400082E090E0909339018093380122C0898146
:10035000882339F081E090E090933901809338014F
:1003600018C083E090E0909339018093380111C068
:100370008981882339F082E090E09093390180935D
:10038000380106C084E090E09093390180933801F1
:10039000000080913801909139018230910559F027
:1003A0008330910558F4009759F0019709F009C07E
:1003B0000E94470106C00E94300103C0000001C036
:1003C000000000000F90DF91CF910895CF93DF934D
:1003D000CDB7DEB7A1970FB6F894DEBF0FBECDBF85
:1003E00080E290E0FC01808180958670898380E2C4
:1003F000E0E1F1E0DE01129601900D928A95E1F7BD
:1004000080913601909137018130910591F08130D2
:10041000910540F08230910509F44AC0039709F430
:1004200058C069C081E090E0909337018093360115
:1004300062C089818230E1F482E090E090933701DC
:1004400080933601209134013091350180910E0165
:1004500090910F012817390708F04CC080913401A2
:10046000909135010196909335018093340142C0FB
:1004700089818430B1F483E090E0909337018093D8
:1004800036018091340190913501892B99F1809149
:100490003401909135010197909335018093340197
:1004A00029C081E090E0909337018093360122C00B
:1004B0008981882339F481E090E09093370180931B
:1004C000360119C082E090E09093370180933601A5
:1004D00012C08981882339F481E090E0909337013C
:1004E0008093360108C083E090E0909337018093B9
:1004F000360101C000008091340190913501880FD0
:10050000991F880F991F9E012F5F3F4F820F931FE6
:100510000196FC0180819181A281B381BC01CD0152
:100520000E9490000000A1960FB6F894DEBF0FBEA7
:10053000CDBFDF91CF910895CF93DF93CDB7DEB7D5
:1005400081E290E0FC01108282E290E02FEFFC015A
:10055000208384E290E02FEFFC01208385E290E08D
:10056000FC0110821092390110923801109237016B
:10057000109236010E9457010E94E601FBCF0E94B3
:100580006C0308F481E008950E94D8020C94A7033C
:100590000E94A00358F00E94990340F029F45F3FA5
:1005A00029F00C94900351110C94DB030C949603E6
:1005B0000E94B80368F39923B1F3552391F3951B77
:1005C000550BBB27AA2762177307840738F09F5F74
:1005D0005F4F220F331F441FAA1FA9F335D00E2EE1
:1005E0003AF0E0E832D091505040E695001CCAF74E
:1005F0002BD0FE2F29D0660F771F881FBB1F261711
:1006000037074807AB07B0E809F0BB0B802DBF01E7
:10061000FF2793585F4F3AF09E3F510578F00C94B6
:1006200090030C94DB035F3FE4F3983ED4F386958C
:1006300077956795B795F7959F5FC9F7880F911DD7
:100640009695879597F90895E1E0660F771F881FC3
:10065000BB1F621773078407BA0720F0621B730B76
:10066000840BBA0BEE1F88F7E09508950E943D03B6
:100670006894B1110C94DB0308950E94C00388F0C4
:100680009F5798F0B92F9927B751B0F0E1F0660F56
:10069000771F881F991F1AF0BA95C9F714C0B13097
:1006A00091F00E94DA03B1E008950C94DA03672F09
:1006B000782F8827B85F39F0B93FCCF386957795C6
:1006C0006795B395D9F73EF49095809570956195AF
:1006D0007F4F8F4F9F4F0895990F0008550FAA0B1A
:1006E000E0E8FEEF16161706E807F907C0F0121645
:1006F0001306E407F50798F0621B730B840B950B48
:1007000039F40A2661F0232B242B252B21F408959C
:100710000A2609F4A140A6958FEF811D811D089539
:1007200097F99F6780E870E060E008959FEF80ECA4
:10073000089500240A941616170618060906089547
:1007400000240A9412161306140605060895092EAD
:100750000394000C11F4882352F0BB0F40F4BF2B1C
:1007600011F460FF04C06F5F7F4F8F4F9F4F08955C
:1007700057FD9058440F551F59F05F3F71F0479552
:10078000880F97FB991F61F09F3F79F08795089537
:10079000121613061406551FF2CF4695F1DF08C056
:1007A000161617061806991FF1CF86957105610573
:1007B00008940895E894BB2766277727CB0197F91B
:1007C00008950E946C0308F48FEF08950E94F903C6
:1007D0000C94A7030E94990338F00E94A00320F014
:1007E000952311F00C9490030C94960311240C940F
:1007F000DB030E94B80370F3959FC1F3950F50E09F
:10080000551F629FF001729FBB27F00DB11D639FC2
:10081000AA27F00DB11DAA1F649F6627B00DA11D68
:10082000661F829F2227B00DA11D621F739FB00D0E
:10083000A11D621F839FA00D611D221F749F33277E
:10084000A00D611D231F849F600D211D822F762F17
:100850006A2F11249F5750409AF0F1F088234AF0F4
:10086000EE0FFF1FBB1F661F771F881F9150504060
:10087000A9F79E3F510580F00C9490030C94DB0384
:100880005F3FE4F3983ED4F3869577956795B795E7
:10089000F795E7959F5FC1F7FE2B880F911D969501
:0A08A000879597F90895F894FFCFAB
:1008AA0000000002000000006700000000000700CE
:1008BA00A4D082437BD49243A4D0A443719DAE4377
:1008CA000000C4430000DC43A4F0F64300D0024415
:00000001FF
