:100000000C9446000C9465000C9465000C946500FB
:100010000C9465000C9465000C9465000C946500CC
:100020000C9465000C9465000C9465000C946500BC
:100030000C9465000C94DE000C9465000C94650033
:100040000C9465000C9465000C9465000C9465009C
:100050000C9465000C9465000C9465000C9465008C
:100060000C9465000C9465000C9465000C9465007C
:100070000C9465000C9465000C9465000C9465006C
:100080000C9465000C9465000C94650011241FBE4F
:10009000CFEFD0E4DEBFCDBF11E0A0E0B1E0E0E102
:1000A000FBE000E00BBF02C007900D92AA35B1073C
:1000B000D9F721E0AAE5B1E001C01D92AB36B20745
:1000C000E1F70E94C4030C9486050C940000CF93C2
:1000D000DF9300D01F92CDB7DEB789837B836A831D
:1000E00089818A3031F48A819B81BC018DE00E9434
:1000F000670080EC90E0FC018081882F90E08072A6
:100100009927892BB1F386EC90E02981FC012083AB
:1001100080E090E00F900F900F90DF91CF910895C5
:10012000CF93DF93CDB7DEB781E890E02BE0FC0101
:10013000208388E890E02DE730E0FC0131832083C4
:100140008FE690E022E0FC01208384E890E0FC014F
:100150001182108280910E0190910F01A0911001E7
:10016000B091110180935B0190935C01A0935D01BC
:10017000B0935E018FE590E02FE530E0F90120813A
:100180002068FC0120830000DF91CF910895CF9378
:10019000DF93CDB7DEB781E890E0FC01108200006C
:1001A000DF91CF910895CF93DF93CDB7DEB781E094
:1001B00080935A010000DF91CF9108951F920F9212
:1001C00000905F000F92112400905B000F922F931C
:1001D0003F934F935F936F937F938F939F93AF93CF
:1001E000BF93EF93FF93CF93DF93CDB7DEB78091AB
:1001F0005B0190915C01A0915D01B0915E0101975E
:10020000A109B10980935B0190935C01A0935D010A
:10021000B0935E0180915B0190915C01A0915D01C2
:10022000B0915E01892B8A2B8B2B91F40E94D30015
:1002300080910E0190910F01A0911001B0911101D8
:1002400080935B0190935C01A0935D01B0935E018C
:100250000000DF91CF91FF91EF91BF91AF919F91FE
:100260008F917F916F915F914F913F912F910F905F
:1002700000925B000F9000925F000F901F90189506
:10028000CF93DF9300D000D0CDB7DEB769837A83F8
:100290008B839C8389819A81AB81BC8180930E0181
:1002A00090930F01A0931001B093110180910E0162
:1002B00090910F01A0911001B091110180935B0109
:1002C00090935C01A0935D01B0935E0100000F90DC
:1002D0000F900F900F90DF91CF9108950F931F9380
:1002E000CF93DF9300D000D0CDB7DEB769837A8398
:1002F0008B839C838091600190916101A091620148
:10030000B09163019C01AD0169817A818B819C81EF
:100310000E94F203882309F477C020E030E0A901AD
:1003200069817A818B819C810E94F203882351F438
:1003300081E990E021E930E0F90120812870FC0199
:10034000208309C081E990E021E930E0F9012081B2
:100350002360FC01208328E539E344E75FE36981FA
:100360007A818B819C810E94F203882344F488E97E
:1003700090E02FEF3FEFFC013183208334C020E079
:1003800034E244EF56E469817A818B819C810E943A
:100390001405181634F488E990E0FC0111821082EB
:1003A00022C008E910E020E030E040E053E4698139
:1003B0007A818B819C810E941905DC01CB019C0113
:1003C000AD0160E074E284EF9AE40E94F703DC017F
:1003D000CB01BC01CD010E946904DC01CB01019776
:1003E000F8019183808384E990E0FC0111821082FE
:1003F00089819A81AB81BC81809360019093610176
:10040000A0936201B093630100000F900F900F90D2
:100410000F90DF91CF911F910F910895CF93DF93AC
:10042000CDB7DEB780E990E020E4FC01208381E9CC
:1004300090E02BE0FC01208360E070E0CB010E94A3
:100440006E010000DF91CF910895CF93DF93CDB778
:10045000DEB780E990E0FC01108281E990E0FC01C8
:1004600010820000DF91CF910895CF93DF93CDB735
:10047000DEB7CA54D1090FB6F894DEBF0FBECDBFA8
:1004800080E2E2E1F1E0DE01139601900D928A959F
:10049000E1F787E090E09A8389838EE0E2E3F1E080
:1004A000DE01939601900D928A95E1F78EE0E0E4EB
:1004B000F1E0DE01D19601900D928A95E1F78CE092
:1004C000EEE4F1E0DE01DF9601900D928A95E1F70E
:1004D00080916401882309F0A8C080916501909102
:1004E0006601880F991F9E012F5F3F4F820F931F58
:1004F000C096FC0120813181809167019091680153
:100500008217930760F58091650190916601880FCD
:10051000991F9E012F5F3F4F820F931F8296FC0110
:1005200080819181880F991F880F991F9E012F5FED
:100530003F4F820F931F0296FC0180819181A2811F
:10054000B381BC01CD010E946E0180916701909141
:1005500068010196909368018093670166C01092CC
:1005600068011092670189819A819C0121503109AB
:1005700080916501909166018217930708F04AC047
:100580008091650190916601880F991F9E012F5FF0
:100590003F4F820F931FCE96FC0180819181892B62
:1005A00021F081E08093640140C0809165019091C9
:1005B00066010196909366018093650180916501C3
:1005C00090916601880F991F9E012F5F3F4F820F08
:1005D000931F8296FC0180819181880F991F880F5B
:1005E000991F9E012F5F3F4F820F931F0296FC01C0
:1005F00080819181A281B381BC01CD010E946E01F5
:1006000080916701909168010196909368018093B1
:1006100067010BC010925F01109266011092650194
:1006200060E070E0CB010E946E018091640188233C
:1006300099F160E070E0CB010E946E01809167014A
:100640009091680101969093680180936701809171
:10065000650190916601880F991F9E012F5F3F4FA2
:10066000820F931FCE96FC0120813181809167011A
:10067000909168012817390779F4109264018091EC
:1006800065019091660101969093660180936501E2
:1006900010926801109267010000C65BDF4F0FB631
:1006A000F894DEBF0FBECDBFDF91CF910895CF93F9
:1006B000DF931F92CDB7DEB780E290E0FC0180812E
:1006C000882F90E08170992721E0892B09F020E0A4
:1006D00029838091690190916A018130910569F0C7
:1006E0008130910518F00297E1F030C081E090E090
:1006F00090936A018093690129C08981882351F010
:1007000082E090E090936A018093690181E0809398
:100710005F011CC081E090E090936A0180936901C1
:1007200015C08981882359F480915F01882339F4A9
:1007300081E090E090936A018093690106C082E0B5
:1007400090E090936A0180936901000080916901B3
:1007500090916A018130910569F08130910560F0D6
:10076000029709F00CC080915F01882339F00E9444
:10077000350204C0000003C0000001C000000000FA
:100780000F90DF91CF910895CF93DF93CDB7DEB770
:1007900081E290E0FC01108282E290E02FEFFC0108
:1007A000208384E290E02FEFFC01208385E290E03B
:1007B000FC01108264E670E080E090E00E9440015D
:1007C0000E94900010926A01109269010E940E022C
:1007D0000E945703000080915A018823E1F3109290
:1007E0005A01F6CF0E949F0408F481E008950E9408
:1007F0000B040C94DA040E94D30458F00E94CC0439
:1008000040F029F45F3F29F00C94C30451110C947B
:100810000E050C94C9040E94EB0468F39923B1F30C
:10082000552391F3951B550BBB27AA276217730716
:10083000840738F09F5F5F4F220F331F441FAA1FAA
:10084000A9F335D00E2E3AF0E0E832D09150504066
:10085000E695001CCAF72BD0FE2F29D0660F771F14
:10086000881FBB1F261737074807AB07B0E809F0FA
:10087000BB0B802DBF01FF2793585F4F3AF09E3F7F
:10088000510578F00C94C3040C940E055F3FE4F31B
:10089000983ED4F3869577956795B795F7959F5FC2
:1008A000C9F7880F911D9695879597F90895E1E00E
:1008B000660F771F881FBB1F621773078407BA076D
:1008C00020F0621B730B840BBA0BEE1F88F7E095C8
:1008D00008950E9470046894B1110C940E05089557
:1008E0000E94F30488F09F5798F0B92F9927B751C9
:1008F000B0F0E1F0660F771F881F991F1AF0BA95C4
:10090000C9F714C0B13091F00E940D05B1E008950F
:100910000C940D05672F782F8827B85F39F0B93F01
:10092000CCF3869577956795B395D9F73EF4909576
:100930008095709561957F4F8F4F9F4F0895990FC8
:100940000008550FAA0BE0E8FEEF16161706E80799
:10095000F907C0F012161306E407F50798F0621BBA
:10096000730B840B950B39F40A2661F0232B242B8F
:10097000252B21F408950A2609F4A140A6958FEFAE
:10098000811D811D089597F99F6780E870E060E000
:1009900008959FEF80EC089500240A941616170618
:1009A00018060906089500240A9412161306140660
:1009B00005060895092E0394000C11F4882352F0C3
:1009C000BB0F40F4BF2B11F460FF04C06F5F7F4F7B
:1009D0008F4F9F4F089557FD9058440F551F59F062
:1009E0005F3F71F04795880F97FB991F61F09F3F1C
:1009F00079F087950895121613061406551FF2CF45
:100A00004695F1DF08C0161617061806991FF1CF94
:100A100086957105610508940895E894BB276627BB
:100A20007727CB0197F908950E949F0408F48FEF70
:100A300008950E942C050C94DA040E94CC0438F02E
:100A40000E94D30420F0952311F00C94C3040C945D
:100A5000C90411240C940E050E94EB0470F3959FB9
:100A6000C1F3950F50E0551F629FF001729FBB27A5
:100A7000F00DB11D639FAA27F00DB11DAA1F649F41
:100A80006627B00DA11D661F829F2227B00DA11DF4
:100A9000621F739FB00DA11D621F839FA00D611D7A
:100AA000221F749F3327A00D611D231F849F600D9B
:100AB000211D822F762F6A2F11249F5750409AF0C4
:100AC000F1F088234AF0EE0FFF1FBB1F661F771F50
:100AD000881F91505040A9F79E3F510580F00C941B
:100AE000C3040C940E055F3FE4F3983ED4F386955F
:100AF00077956795B795F795E7959F5FC1F7FE2BBB
:100B0000880F911D9695879597F90895F894FFCFD2
:100B1000000000020000000067000000000001006B
:100B20000000A4D082437BD49243A4D0A443719DFF
:100B3000AE430000C4430000DC43A4F0F64300D001
:100B40000244000001000200000002000000020058
:100B5000030003000300030003000300030003007D
:0A0B6000030003000300030003007C
:00000001FF
